:020000040800F2
:100000001807002041020008291C0008211C0008D4
:10001000251C0008CD0A0008E923000800000000A4
:10002000000000000000000000000000C5210008E2
:10003000510B000800000000C1210008C921000880
:100040005B0200085B0200085B0200085B0200081C
:100050005B0200085B0200085B0200085B0200080C
:100060005B0200085B0200085B0200085B020008FC
:100070005B0200085B0200085B0200085B020008EC
:100080005B0200085B0200085B0200085B020008DC
:100090005B0200085B0200085B0200085B020008CC
:1000A0005B0200085B0200085B0200085B020008BC
:1000B0005B0200085B0200085B0200085B020008AC
:1000C0005B0200085B0200085B0200085B0200089C
:1000D0005B0200085B0200085B020008DD230008E9
:1000E0005B0200085B0200085B0200085B0200087C
:1000F0005B0200085B0200085B0200085B0200086C
:100100005B0200085B0200085B0200085B0200085B
:100110005B0200085B0200085B0200085B0200084B
:100120005B0200085B0200085B0200085B0200083B
:100130005B02000800000000000000005B020008F5
:100140005B0200085B0200085B0200085B0200081B
:100150005B0200085B0200085B0200085B0200080B
:100160005B0200085B0200085B0200085B020008FB
:100170005B0200085B020008000000005B02000850
:100180005B0200085B02000800F002F800F049F88A
:100190000AA090E8000C82448344AAF10107DA45E2
:1001A00001D100F03EF8AFF2090EBAE80F0013F0EB
:1001B000010F18BFFB1A43F001031847DC2F0000A2
:1001C000FC2F0000103A24BF78C878C1FAD8520733
:1001D00024BF30C830C144BF04680C6070470000C1
:1001E0000023002400250026103A28BF78C1FBD840
:1001F000520728BF30C148BF0B607047662902F024
:100200007C86002070471FB502F06AFE00F0E8FA15
:1002100004000020002102F04DFEE0601FBD10B57B
:1002200010BD00F0DDFB1146FFF7EDFF02F0F2F824
:1002300000F0FBFB03B4FFF7F2FF03BC00F03EFC51
:100240000948804709480047FEE7FEE7FEE7FEE76A
:10025000FEE7FEE7FEE7FEE7FEE7FEE704480549A6
:10026000054A064B70470000CD21000889010008AF
:100270001801002018070020180300201803002090
:1002800053EA020C00F069802DE9F04B4FF00006B4
:10029000002B1FBFB3FA83F503FA05F424FA05F621
:1002A0005E4012BF1643B2FA82F502FA05F4C5F1B8
:1002B00020051EBF22FA05FC44EA0C04203556EA4C
:1002C000044C4FEA144418BF641C4FF000084FF070
:1002D0000009904271EB030C39D3002919BFB1FA20
:1002E00081F701FA07F6B0FA80F700FA07F6C7F1CE
:1002F00020071EBF20FA07FC46EA0C062037B6FB93
:10030000F4FCA7EB0507103F07F01F0BCBF120060D
:100310002CFA06F60CFA0BFB44BFB3460026202F3E
:10032000A4BF5E464FF0000B5BEA060C08BF4FF01F
:10033000010B19EB0B0948EB0608ABFB027C06FB33
:1003400002CC0BFB03CCC01B71EB0C01C1E70B46CD
:10035000024641464846BDE8F08B13B5084318BF36
:100360004FF0FF300146AFF30080BDE81C407047FE
:100370004FF0000200B5134694469646203922BF3E
:10038000A0E80C50A0E80C50B1F12001BFF4F7AF89
:10039000090728BFA0E80C5048BF0CC05DF804EB6B
:1003A000890028BF40F8042B08BF704748BF20F8D9
:1003B000022B11F0804F18BF00F8012B70477047D7
:1003C000704770472DE9FF4F0C461E464FF0FF3730
:1003D0008BB0D2E90001DDF860800A908A46C1F353
:1003E0000A5505B93D46002108464FF00000BAF114
:1003F000000F00F4400005DA00EB80004FF44001EC
:1004000001EA50004FEA9059B9F1010F00DDB946F9
:100410000A9850EA4A000ED044F61050A5F2FF3573
:1004200045432F14B8F1000F1ED07542291E1EDD62
:10043000C9F100021CE0B8F1010F4FF0000001D03B
:10044000302103E0F24305E02154401CB042FBDBC5
:1004500030460022002121540B99C1F80880C1E9DF
:1004600000200FB0BDE8F08FBD1B6D1CDEE74A46D3
:1004700000DA694206A800F03DFA06AB93E80700EF
:1004800003AB83E8070050460A9902F032F98DE881
:100490000700A0F500501F3800900398002D0ADDDA
:1004A00042F21F014A460844002303A9039068460C
:1004B00002F09CFB09E0A0F500504A461F380023DB
:1004C00003A90390684602F0A6FB8DE8070000042C
:1004D000000C03D04FF0FF30410800E01046B8F1A7
:1004E000000F03D00022009215461EE0751E05D4B1
:1004F00000F07AF9303262556D1EF9D5B34601220B
:10050000084302D000227F1C04E02078302801D16B
:1005100000227F1E002A099784D01DE0112D07DAE2
:1005200000F062F9303262556D1C50EA0102F5D1DB
:10053000084302D00098C8B10EE00021681E05E013
:10054000235C625C63542254401E491C8142F7DBE9
:10055000AB46A81B401E0990002004F80B000B9826
:10056000099AC0F80880C0E9002B7AE711264FF0FD
:10057000000857E72DE9F04F88460446D21D22F0C7
:10058000070191B0D1E90001CDE90A0102F07AFC3E
:1005900002460B98C00F01D02D2007E0206881078C
:1005A00001D52B2002E0202101EAC000032A099096
:1005B00001D0072A05DB03464146204600F05AF9E0
:1005C0000BE12078800601D5E06900E00620B8F153
:1005D000650F814606D0B8F1660F18D0B8F1670FE5
:1005E00070D131E00020B9F1110F009001DB11232F
:1005F00001E009F101030AAA01A90CA8FFF7E2FE34
:10060000DDE90C70002609F10105834647E0012071
:100610004B4600904FF000470AAA01A90CA8FFF72B
:10062000D1FEDDE90DB00C995D46002610B909F147
:1006300001000D18B9EB050003D4C0F1FF3609F134
:100640000105A5EB09002BE0B9F1010F01DA4FF02C
:1006500001090020B9F1110F0090484601DD112376
:1006600000E003460AAA01A90CA8FFF7ABFEDDE9EA
:100670000C704D4600268346207800070AD4AB450F
:1006800000DA5D4601A8012D04DD411911F8011CB5
:10069000302907D04F4502DA17F1040F04DA0120A0
:1006A00082460FE06D1EEEE7002F02DCED1B3E449C
:1006B00003E0781CA84200DD7D1CB81B00F1010A94
:1006C0004FF000472078000703D4AA4501DB4FF024
:1006D000FF3A0021B7F1004F0DF143088DF84310A8
:1006E00024D002202B23002F01DA7F422D230A2160
:1006F000021EA0F1010000DC5FB197FBF1FC97FB4B
:10070000F1F201FB1C7C17460CF1300C08F801CD0E
:10071000EEE7A8F1010003702188090501D5452104
:1007200000E06521A0F1010800F8011C09980FA95B
:10073000A1EB0807FF1D00B10120411901EBEA7090
:10074000A1693844081A401EA0612078C00602D46E
:100750002046AFF30080099828B1D4E901219047E1
:10076000206A401C20622078C00622D52046AFF3C4
:1007700000801EE0002E04DBB34502DD01A8805D91
:1007800000E03020D4E901219047206A401C20621B
:10079000761CAAF101005FEA000A0AD100F020F8F5
:1007A000C0680168405CD4E901219047206A401C80
:1007B0002062281EA5F10105DCDC07E0D4E9012157
:1007C00018F8010B9047206A401C2062381EA7F1E0
:1007D0000107F3DC2046AFF30080032011B041E6AF
:1007E000004870473000002030B5B0F10A0271F1C6
:1007F00000034FEA900E4EEA817EB0EB0E0061EBF3
:1008000091014FEA101E4EEA017E10EB0E0041EB03
:1008100011114FEA102E4EEA016E10EB0E0041EB63
:1008200011214FEA104E4EEA014E10EB0E0041EB43
:100830001141401841F100014FEAD00040EA4170F7
:100840004FEAD1014FEA810444EA907410EB80052D
:1008500044EB01046D1944EB0404521BA3414FF017
:10086000000348BF0A3200D530BD401C41F10001F1
:1008700030BD00002DE9F0411F4604460326016803
:10088000072A01F4006004DB08B116A505E016A5EF
:1008900003E008B115A500E015A521F010002060C7
:1008A000A069C01EA0610FB1401EA0612046AFF339
:1008B00000804FB1D4E9012138469047206A401C9E
:1008C0002062C01C206206E0206AFAE7D4E9012118
:1008D00015F8010B9047761EF8D22046AFF3008042
:1008E000BDE8F0814E414E006E616E00494E4600FB
:1008F000696E66002DE9F047814616468AB0354894
:1009000078440DC88DE80D0032487844801C03AC53
:100910000DC884E80D0041F69B300844372190FB58
:10092000F1F290FBF1F5A5F1800501FB12041B3CEF
:1009300002D56442012000E00020DFF898A0804644
:100940000027FA44AAF1BE0A0EE0E0070AD03246B8
:10095000684607EB470101230AEB810102F05BF9CE
:100960008DE8070064107F1C002CEED1194F7F44E6
:10097000AE3F19E0E80715D007EB04100DF1180A97
:1009800090E80E008AE80E00C068F04201D1981984
:1009900008903246012306A903A802F03CF903ABF4
:1009A00083E807006D10641C002DE3D14FF00103B4
:1009B00032466946B8F1000F03A802D002F016F9DA
:1009C00001E002F028F9C9E90001C9F808200AB0DD
:1009D000BDE8F0877826000000487047100000202E
:1009E0007546FFF7F9FFAE4605006946534620F00D
:1009F0000700854618B020B5FFF730FCBDE8204061
:100A00004FF000064FF000074FF000084FF0000BCA
:100A1000AC46ACE8C009ACE8C009ACE8C009ACE839
:100A2000C00921F007018D46704710B50446AFF3A9
:100A300000802046BDE81040FFF7FCBB000000002E
:100A400030B44FF0013C50F8042B51F8043BCCFA81
:100A500052F4D51A20D1FCB950F8042B51F8043BBC
:100A6000CCFA52F4D51A17D1B4B950F8042B51F876
:100A7000043BCCFA52F4D51A0ED16CB950F8042BC1
:100A800051F8043BCCFA52F4D51A05D1002CDAD037
:100A900030BC4FF00000704729BAB1FA81F111F073
:100AA0001801D1F120008440F2D1CA40CB4012F0AD
:100AB000FF0213F0FF0330BCD01A70470149182021
:100AC000ABBEFEE72600020070470000FEE7000014
:100AD00041F2040140F20803CEF20001C2F2000329
:100AE0000A68D3F800C04DF68363C4F21B33ACFB35
:100AF000033C4FEA9C43584309E000BF0B689B1A34
:100B0000834228BF70470B689B1A834207D20B6849
:100B10009B1A834203D20B689B1A8342EED3704721
:100B20004EF6FC50CEF200000168C90148BF704784
:100B3000016841F08071016041F20000CEF20000D6
:100B400000214160016841F001010160704700002F
:100B50007047000070B5866D044600F043F994F8C4
:100B60003510022928D105462068216C026822F040
:100B700016020260426922F08002426109B9A16C4A
:100B800019B1016821F008010160016821F001013B
:100B9000016000BF20680068C00715D000F022F98E
:100BA000401B0628F6D320206065032084F835001A
:100BB000002184F8341070BD802060650120002180
:100BC00084F8341070BD00BFE06D3F2101FA00F0E1
:100BD000B060012084F835000020002184F8341032
:100BE00070BD000090F83510022909D1052180F868
:100BF00035100068016821F0010101600020704794
:100C00008021416501207047B0B5044600F0EAF844
:100C1000054640F20000C2F200000078611C18BFD7
:100C2000044400BF00F0DEF8401BA042FAD3B0BD80
:100C30002DE9F04F82B000F13E4241F6004502F14D
:100C4000FF77C4F20205082243F6004E4FEAB726AA
:100C5000A84208BF0722C4F2010E072E38BF4FEA90
:100C6000B7220125002600274FF00008009208E077
:100C700008F101080437B8F1100F06F1020600F080
:100C8000A7800C6805FA08F914EA090FF0D0D1F82A
:100C900004B003220BF0030CACF10104B240012CB0
:100CA0006FEA020A10D88268CC6802EA0A02B440ED
:100CB000224382604268CBF3001422EA090204FA5C
:100CC00008F42243426005E0BCF1030F02D14FF06B
:100CD000030C20E0C2688C6802EA0A02B440224396
:100CE000BCF1020FC26016D16FF0030202EA580293
:100CF0000244D2F820C007F01C050F230C69AB405A
:100D00002CEA030304FA05F52B431362D1F804B06F
:100D100001250BF0030C02680CFA06F302EA0A0242
:100D20001A431BF4403F0260A2D0002243F6440362
:100D30000192C4F202031A684FF6084C42F4804252
:100D40001A601A68CFF6FF7C02F480420192019A81
:100D500028F00302724452F80C3007F00C050F24FF
:100D6000AC40A343009C04FA05F52B4342F80C3039
:100D7000DEF808204B6842EA090543F60C4CDC0219
:100D800058BF22EA0905CEF80850C4F2010CDCF87D
:100D900000209C0242EA090558BF22EA0905CCF866
:100DA0000050DEF804209C0342EA090558BF22EAFD
:100DB0000905CEF80450DEF80020DB0342EA0905FD
:100DC00058BF22EA0905CEF80050012550E700BFC0
:100DD00002B0BDE8F08F0000002A08BF090481615D
:100DE0007047000040F21010C2F200000068704727
:100DF00040F2000040F21011C2F20000C2F2000105
:100E000000780A68104408607047000080B543F617
:100E10000040C4F20200016841F400710160016801
:100E200041F480610160016841F480710160032038
:100E300000F088F80F2000F005F800F027F80020F7
:100E400080BD000070B540F20006C2F2000640F21C
:100E500008013278C2F200014FF47A730968B3FBDB
:100E6000F2F20446B1FBF2F1084600F043FB0F2C0E
:100E70004FF0010508D838B94FF0FF302146002265
:100E8000002500F033F87460284670BD82B0002061
:100E900043F640010190C4F202014A6842F48042E4
:100EA0004A604A6802F480420192019A0090086800
:100EB00040F080500860086800F080500090009872
:100EC00002B07047002848BF7047C1B200F01F0051
:100ED000012202FA00F04EF20012CEF2000242EAC3
:100EE000D10121F0030108607047000010B54EF6F3
:100EF0000C5CCEF2000CDCF80030C3F3022E8EF056
:100F00000704042C28BF0424BEF103034FF0FF3E66
:100F10000EFA04F438BF0023A14399400EFA03F3FC
:100F20009A43114300F00F0200F160430901043AB3
:100F300003F564436244002848BF02F10C031970B2
:100F400010BD00004EF60C51CEF200010A684FF6BB
:100F5000FF031A4060F30A2242F0806040F0FD7007
:100F6000086070472DE9F041002800F08B8043F6BF
:100F70000808C4F202080446D8F8F8030D4600F049
:100F80000700884207D288F8F853D8F8F80300F031
:100F90000700A84276D12068810717D5410705D5FB
:100FA000D8F8001041F4E051C8F80010010705D549
:100FB000D8F8001041F46041C8F80010D8F80010CB
:100FC000A26821F0F0011143C8F80010C0073FD11A
:100FD000D8F8F80300F00700A84207D988F8F853BA
:100FE000D8F8F80300F00700A8424BD12068410769
:100FF00007D5D8F80010E26821F4E0511143C8F891
:101000000010000708D5D8F80000216920F46040DE
:1010100040EAC100C8F8000000F07CF8D8F80010E1
:1010200042F69472C1F30311C0F60002515C40F223
:10103000080220FA01F140F20400C2F20000006848
:10104000C2F200021160FFF7FDFE0020BDE8F08152
:101050006068811E022907D258F8081C89015CBF0C
:101060000120BDE8F08111E0012807D158F8081CE3
:1010700089035CBF0120BDE8F08107E058F8081C37
:10108000890703D40120BDE8F08100BFD8F8001023
:1010900021F003010843C8F80000FFF7A3FE06464D
:1010A00041F28837D8F80000616800F00C00B0EB1E
:1010B000810F8DD0FFF796FE801BB842F2D9032036
:1010C000BDE8F08140F2080043F60801C2F20000DA
:1010D000C4F202010068096842F6A472C1F38221D9
:1010E000C0F60002515CC8407047000040F20800A2
:1010F00043F60801C2F20000C4F202010068096868
:1011000042F6A472C1F34231C0F60002515CC840FD
:101110007047000010B543F60404C4F2020460688E
:1011200000F00C0008280BD0042819BF42F2004040
:10113000C0F2F40047F64000C0F27D1010BD00BFC1
:10114000206821682368490247F64001C0F27D11FA
:1011500000F03F02C3F388105CBF42F20041C0F2CE
:10116000F401A1FB00010023FFF78AF821680222A5
:10117000C1F3014102EB4101B0FBF1F010BD0000F1
:101180002DE9F04182B0002868D00446007843F68B
:101190000006C007C4F202060BD0B06800F00C00D5
:1011A000042840F09F803068800302D560680028E2
:1011B00054D0207880071AD5B06810F00C0F09D0F1
:1011C000B06800F00C00082840F0A680706840026B
:1011D00000F1A2803068800702D5E06801283DD187
:1011E0003068216920F0F80040EAC10030602078C2
:1011F000000737D4207840074CD4A56955B3B068B0
:1012000000F00C00082840F0BB80012D26D070684B
:10121000E16900F480028A4220D1216A00F03F0295
:101220008A421BD147F6C071626A0140B1EB821F4E
:1012300014D1A16A4FF6FF73C903994300F44032F9
:10124000A1F580318A4209D1E16A00F07060B0EB0B
:10125000016F03D1002002B0BDE8F081012002B08F
:10126000BDE8F0816069002840F20000C4F2472028
:1012700076D00121C0F8801EFFF7B4FD054600BFFF
:10128000706F8007B6D4FFF7ADFD401B0228F7D979
:10129000DDE000BF306C10F080580AD100200190D2
:1012A000306C40F080503064306C00F08050019021
:1012B000019847F20007C4F200073868C00541D41E
:1012C000386840F480703860FFF78CFD054600BF39
:1012D0003868C00536D4FFF785FD401B0228F7D9D2
:1012E000B5E000BFB06800F00C00082803D17068BA
:1012F00040023FF558AF6068B0F5803F07D0B0F5C9
:10130000A02F40F08D80306840F48020306030683D
:1013100040F4803030608DE0E068002852D000203A
:10132000C4F2472001210160FFF75CFD054600BFC4
:10133000306880073FF554AFFFF754FD401B02288B
:10134000F6D984E0A068012805D005284ED1306F79
:1013500040F004003067306F40F0010030674FE02C
:101360000021C0F8801EFFF73DFD0546706F800725
:101370007FF540AFFFF736FD401B0228F6D966E047
:101380000027C4F2472700203866FFF72BFD022D07
:1013900005460BD1306880015ED5FFF723FD401B69
:1013A00002284FF00300F5D955E700BF30688001EF
:1013B0007FF550AFFFF716FD401B02284FF00300EA
:1013C000F4D948E70020C4F2472000210160FFF76C
:1013D00009FD0546306880077FF509AFFFF702FD7C
:1013E000401B02284FF00300F4D934E7316F002886
:1013F00021F001013167316F21F0040131674DD0D7
:10140000FFF7F0FC054641F2883700BF306F8007D8
:1014100056D4FFF7E7FC401BB842F7D917E000BFEE
:101420003168002821F480313160316821F4802155
:1014300031604FD0FFF7D6FC054600BF306880030F
:101440003FF5B7AEFFF7CEFC401B6428F6D903206A
:1014500002B0BDE8F08100BF04F11C052FCD0843A8
:1014600040EA8210D9034FF6FF729143A1F5803113
:1014700040EA05600843706001203866FFF7B2FC5F
:10148000044600BF306880013FF5E4AEFFF7AAFCD8
:10149000001B02284FF00300F4D9DCE6FFF7A2FCA2
:1014A000054641F2883700BF306F800708D5FFF747
:1014B00099FC401BB8424FF00300F5D9CBE600BFC2
:1014C000B8F1000F7FF499AE306C20F0805030649A
:1014D00093E600BFFFF786FC054600BF3068800337
:1014E0007FF567AEFFF77EFC401B64284FF00300DA
:1014F000F4D9B0E6411E0020B0EB116F1CBF0120F3
:1015000070474EF21002CEF2000251604EF62351A7
:10151000CEF20001F0230B7007219060116070473C
:101520007047000070470000B0B582B00446006804
:101530000168C368426901F02F05202D03F02005E2
:1015400006D12DB1204602B0BDE8B04000F04EBE3D
:101550005FEA017C1EBF02F0010E03F4907212EBF1
:101560000E0253D1226B012A05D111F0100218BFCF
:1015700013F0100236D10A0622D513F080021FD0D4
:1015800094F83D1021293FD1A168B1F5805F03D1C6
:101590002169002900F07282216A4A1C22620978BE
:1015A0004160E18C01390A04E1842DD1C16821F048
:1015B0008001C160C16841F04001C16002B0B0BDAE
:1015C000490621D513F040011ED0C16821F0400129
:1015D000C1602021204684F83D1002B0BDE8B04033
:1015E00000F01CBB0021019101680191416801914B
:1015F00001994069400613D4A08DE18DE28D002A47
:1016000018BF884240F0BE8102B0B0BDCA0718BF03
:1016100013F4807240F0BA804A0700F1BD80C2E046
:10162000A16B0868426893B2002BEDD0A08D834275
:10163000EAD2E285C969B1F5807F00F09D8020681B
:1016400050E8030F216820F4807041E80302DAB10A
:10165000206850E8030F216820F4807041E80302FD
:1016600092B1206850E8030F216820F4807041E8AF
:1016700003024AB1206850E8030F216820F480700B
:1016800041E80302002ADAD1206850E8050F2168FA
:1016900020F0010041E80502DAB1206850E8050FAA
:1016A000216820F0010041E8050292B1206850E86D
:1016B000050F216820F0010041E805024AB12068C9
:1016C00050E8050F216820F0010041E80502002ADA
:1016D000DAD1206850E8050F216820F0400041E889
:1016E0000502DAB1206850E8050F216820F04000BB
:1016F00041E8050292B1206850E8050F216820F00A
:10170000400041E805024AB1206850E8050F216811
:1017100020F0400041E80502002ADAD1202084F8B8
:101720003E0000202063206850E8030F216820F06D
:10173000100041E80302DAB1206850E8030F216885
:1017400020F0100041E8030292B1206850E8030F36
:10175000216820F0100041E803024AB1206850E8F7
:10176000030F216820F0100041E80302002ADAD1BB
:10177000A06BFFF7EFF9A08DE18D401A81B22046F2
:1017800002B0BDE8B040FFF7CBBE00BF226C42F014
:10179000010222644A0706D5BEF1000F03D0226C75
:1017A00042F0020222648A0706D5BEF1000F03D080
:1017B000226C42F004022264BCF1000F09D545EA14
:1017C0000E02B2FA82F2520903D1226C42F00802F0
:1017D0002264226C002A3FF417AF11F0200118BFD9
:1017E000002D03D0204600F001FD20684069216CE7
:1017F00000F0400001F00801401800F0B58000BF83
:10180000206850E8030F216820F4907041E803023B
:10181000BAB3206850E8030F216820F4907041E8C3
:10182000030272B3206850E8030F216820F490701F
:1018300041E803022AB3206850E8030F216820F42E
:10184000907041E80302002ADAD11AE0206850E8DB
:10185000050F216820F0010041E80502DAB1206897
:1018600050E8050F216820F0010041E8050292B11F
:10187000206850E8050F216820F0010041E80502CA
:101880004AB1206850E8050F216820F0010041E8C6
:101890000502002ADAD1206B012824D1206850E803
:1018A000030F216820F0100041E80302DAB120683C
:1018B00050E8030F216820F0100041E8030292B1C4
:1018C000206850E8030F216820F0100041E803026F
:1018D0004AB1206850E8030F216820F0100041E869
:1018E0000302002ADAD1202084F83E000020206381
:1018F0002068406940063FD5206850E8050F216800
:1019000020F0400041E80502DAB1206850E8050FF8
:10191000216820F0400041E8050292B1206850E8BB
:10192000050F216820F0400041E805024AB1206817
:1019300050E8050F216820F0400041E80502002A28
:10194000DAD1A06BC0B142F2E111C0F6000101652D
:10195000FFF748F900283FF457AEA06B016D02B0C5
:10196000BDE8B040084700BF2046FFF7DBFD002080
:10197000206402B0B0BD00BF204602B0BDE8B04058
:10198000FFF7D0BD401A216851E8031F226821F4F7
:10199000907142E80313DBB1216851E8031F22680C
:1019A00021F4907142E8031393B1216851E8031FB9
:1019B000226821F4907142E803134BB1216851E889
:1019C000031F226821F4907142E80313002BDAD13F
:1019D000216851E8051F226821F0010142E8051342
:1019E000DBB1216851E8051F226821F0010142E8BE
:1019F000051393B1216851E8051F226821F0010108
:101A000042E805134BB1216851E8051F226821F017
:101A1000010142E80513002BDAD1202184F83E10A1
:101A200000212163216851E8031F226821F0100181
:101A300042E80313002B3FF4A1AE216851E8031FD5
:101A4000226821F0100142E80313002B3FF496AE08
:101A5000216851E8031F226821F0100142E80313B6
:101A6000002B3FF48BAE216851E8031F226821F060
:101A7000100142E80313002BD4D17FE6216A31F82C
:101A8000022B6FF35F22426021628AE5002804BFC7
:101A90000120704710B5044690F83D0028B9002099
:101AA00084F83C00204600F021F8242084F83D0012
:101AB0002068C16821F40051C160204600F016FC86
:101AC0002068016921F490410161416921F02A01F6
:101AD0004161C16841F40051C160002020212064AF
:101AE00084F83D1084F83E1010BD000080B586B02B
:101AF000016844F60000C4F20000814202D006B042
:101B000080BD00BF002143F630020191C4F2020201
:101B1000136900F5DE3043F480231361136903F485
:101B200080230193019B0191136843F0020313602A
:101B3000126802F002020192019A4FF4406201928F
:101B40000222CDE90221032104910721059101A977
:101B5000FFF76EF8272000210022FFF7C7F92720A2
:101B6000FFF7B0F906B080BD90F83E30202B0BD1C6
:101B700000294FF0010318BF002A01D11846704711
:101B800090F83C30012B01D1022070470023036301
:101B9000816222218285C285036480F83E10026939
:101BA000016880F83C301AB1C86840F48070C860A1
:101BB0004869002340F001004861C86840F02000F7
:101BC000C86018467047000070B5006844F6000110
:101BD000C4F20001884218BF70BD40F27004C2F226
:101BE000000442F6AC7214F8015FC0F60002032054
:101BF000042100F0D9F9E61D3046294600F0F8FC32
:101C00003046294600F018FD40F2CC00C2F2000038
:101C100021460122BDE87040FFF7A6BF70470000D3
:101C2000FEE70000FEE70000FEE700002DE9F041BE
:101C300040F200080746C4F20208082015460E4686
:101C400054B260F3DF0740464FF480410022FFF7B3
:101C5000C3F8404610210022FFF7BEF8384600F0D6
:101C6000F9F9404610210122FFF7B6F840464FF43B
:101C70008041002246F08006FFF7AEF84046102172
:101C80000022FFF7A9F8304600F0E4F940461021A1
:101C90000122FFF7A1F8202CB8BFBDE8F08105EBC9
:101CA0008500502D3FBF6030C1B242F6B672C0F61B
:101CB000000221BF7030C1B243F2A602C0F600029A
:101CC000555C52FA80F740464FF480410122FFF7FD
:101CD00083F8404610210022FFF77EF8284600F0E6
:101CE000B9F9404610210122FFF776F840464FF43B
:101CF00080410122FFF770F8404610210022FFF7D3
:101D00006BF87878BE78FD7800F0A4F94046102191
:101D10000122FFF761F840464FF480410122FFF7AE
:101D20005BF8404610210022FFF756F8304600F0DD
:101D300091F9404610210122FFF74EF840464FF43A
:101D400080410122FFF748F8404610210022FFF7AA
:101D500043F8284600F07EF9404610210122FFF7A3
:101D60003BF8381D057840464FF480410122FFF7CB
:101D700033F8404610210022FFF72EF8284600F0E5
:101D800069F9404610210122FFF726F840464FF43A
:101D900080410122FFF720F8404610210022FFF782
:101DA0001BF8002000F056F9404610210122BDE842
:101DB000F041FFF711B80000B0B50024C4F20204EE
:101DC00020464FF480410022FFF706F820461021FC
:101DD0000022FFF701F8402000F03CF920461021D6
:101DE0000122FEF7F9FF20464FF480410022FEF762
:101DF000F3FF204610210022FEF7EEFF802000F0C6
:101E000029F9204610210122FEF7E6FF4FF4FC7568
:101E100020464FF480410122FEF7DEFF20461021CC
:101E20000022FEF7D9FF002000F014F9204610210F
:101E30000122FEF7D1FF013DEAD1B0BD10B5FEF79A
:101E40006FFE0024C4F2020420464FF480410122B8
:101E5000FEF7C2FF204610210122FEF7BDFFC82079
:101E6000FEF736FE20464FF400510022FEF7B4FF85
:101E70000A20FEF7C9FE20464FF400510122FEF76A
:101E8000ABFF20464FF480410022FEF7A5FF20461D
:101E900010210022FEF7A0FF212000F0DBF82046F1
:101EA00010210122FEF798FF20464FF480410022C6
:101EB000FEF792FF204610210022FEF78DFFC8207A
:101EC00000F0C8F8204610210122FEF785FF2046C9
:101ED0004FF480410022FEF77FFF204610210022B0
:101EE000FEF77AFF132000F0B5F8204610210122FA
:101EF000FEF772FF20464FF480410022FEF76CFF90
:101F0000204610210022FEF767FF202000F0A2F8F3
:101F1000204610210122FEF75FFF20464FF480414A
:101F20000022FEF759FF204610210022FEF754FF41
:101F3000092000F08FF8204610210122FEF74CFF07
:101F40003220FEF761FEFFF737FF0A20FEF75CFE46
:101F500020464FF480410022FEF73EFF204610212C
:101F60000022FEF739FF082000F074F82046102107
:101F70000122FEF731FF0A20FEF746FE20464FF40D
:101F800080410022FEF728FF204610210022FEF7A4
:101F900023FF0C2000F05EF8204610210122BDE84E
:101FA0001040FEF719BF00002DE9F041044600275C
:101FB000002818BF013C08202546C4F202079046BD
:101FC0000E46002960F3DF0538464FF480414FF09C
:101FD000000218BF013EFEF7FFFE38461021002226
:101FE000FEF7FAFE284600F035F8384610210122A7
:101FF000FEF7F2FE38464FF48041002246F080059D
:10200000FEF7EAFE384610210022FEF7E5FEE8B2B0
:1020100000F020F8384610210122FEF7DDFE98F886
:102020000000002808BFBDE8F08106EB46014D0026
:10203000A8F10106E4B200BFE9B2C2B22046FFF740
:10204000F5FDB0780635002806F10106F4D1BDE8AB
:10205000F0810000B0B50024C4F202040546204619
:1020600020210022FEF7B8FE0220FEF731FDEA092A
:1020700020468021FEF7B0FE204620210122FEF7F7
:10208000ABFE0220FEF724FD204620210022FEF7B1
:10209000A3FE0220FEF71CFDC5F38012204680211E
:1020A000FEF79AFE204620210122FEF795FE02202F
:1020B000FEF70EFD204620210022FEF78DFE0220B5
:1020C000FEF706FDC5F3401220468021FEF784FE90
:1020D000204620210122FEF77FFE0220FEF7F8FCB9
:1020E000204620210022FEF777FE0220FEF7F0FCBA
:1020F000C5F3001220468021FEF76EFE2046202107
:102100000122FEF769FE0220FEF7E2FC20462021B4
:102110000022FEF761FE0220FEF7DAFCC5F3C002E2
:1021200020468021FEF758FE204620210122FEF79E
:1021300053FE0220FEF7CCFC204620210022FEF7B1
:102140004BFE0220FEF7C4FCC5F38002204680212E
:10215000FEF742FE204620210122FEF73DFE02202E
:10216000FEF7B6FC204620210022FEF735FE0220B5
:10217000FEF7AEFCC5F3400220468021FEF72CFEA0
:10218000204620210122FEF727FE0220FEF7A0FCB8
:10219000204620210022FEF71FFE0220FEF798FCB9
:1021A00005F0010220468021FEF716FE2046202180
:1021B0000122FEF711FE0220BDE8B040FEF788BC08
:1021C0007047000070470000FEF712BE4EF68850C0
:1021D000CEF20000016841F4700101607047000018
:1021E000806B0021C185C184FFF79CB981B090F854
:1021F0003E10222921D183680246B3F5805F09D1C0
:1022000052F8281F52F8183C002B63D003685B6813
:102210000AE000BF52F8281F13B90369002BF5D05C
:1022200003685B6803F07F030B7011680131116074
:10223000C18D01390A04C18502D001B0704700BFC9
:102240000168CA6822F02002CA60CA6822F480725B
:10225000CA604A6922F001024A61202180F83E10DA
:10226000016B01293ED10021016300BF016851E8E3
:10227000031F026821F0100142E80313DBB101687B
:1022800051E8031F026821F0100142E8031393B1E3
:10229000016851E8031F026821F0100142E80313AE
:1022A0004BB1016851E8031F026821F0100142E8B8
:1022B0000313002BDAD101680A68D20606D5002282
:1022C00000920A680092496800910099818D01B0DE
:1022D000FFF726B9026852686FF35F2221F8022BDC
:1022E0008162A5E701B0FFF76FBC000010B504469E
:1022F0000068D4E902C22369016921F44051114305
:102300000161626943EA0C01E3691143C268194340
:1023100049F20C639A431143C1604169A26921F4F7
:10232000407141F20043114340F48062C4F2010362
:102330009A42416102D1FEF7D9FE01E0FEF7C2FEEA
:10234000E16963681922B1F5004FA0FB020123D1B6
:102350005A00DB0FFDF794FF48F21F51C5F2EB1155
:10236000A0FB01235A094FF69C73C0F6FF7303F1DB
:10237000805302FB0300322303EBC000A0FB0101EA
:102380004FF4F87000EA111000EB0210C1F3421193
:1023900008442168886010BD9A009B0FFDF770FF0C
:1023A00048F21F51C5F2EB11A0FB01235A094FF669
:1023B0009C73C0F6FF7302FB0300322303EB001093
:1023C000A0FB0101F02000EA511000EB0210C1F364
:1023D000431108442168886010BD000040F2CC0021
:1023E000C2F20000FFF7A0B8FEE700000023C0E93A
:1023F0000013C0E90232036170470000D0E9001207
:1024000000238B5441680131416070470069704777
:102410004068704792B040F27009C2F2000943F67A
:10242000300547F2000709F1080009F11C014022BC
:10243000C4F20205C4F20007FFF7D8FFFEF7E6FC7E
:1024400006AC201D2C21FDF793FF00260596CDE953
:102450000366CDE901660096286940F08050286146
:10246000286900F08050009000980096386840F489
:1024700080403860386800F4804000900098022066
:1024800006900120099010200A9020460C96FEF735
:1024900077FE28B1EFF3108072B600BFFEE700BFF1
:1024A0000F20CDE9010601A80021CDE903660596BC
:1024B000FEF758FD20B1EFF3108072B6FEE700BFC3
:1024C00000240A940194286807F5CC3640F00400F3
:1024D00028602868072100F0040001900198019409
:1024E0002868002240F00100286028684FF00708A3
:1024F00000F00100019001980194286840F002006A
:102500002860286800F00200019001983046FEF72C
:1025100063FC07F5C83528464EF2B01100224EF292
:10252000B01AFEF759FC07F5CA37384633210022A6
:10253000FEF752FCCDF818800DF118084FF0010B92
:1025400030464146CDE907B40994FEF771FB2846B1
:102550004146CDE906ABCDE90844FEF769FB3320DF
:10256000CDE9060B38464146CDE90844FEF760FB4D
:1025700040F2CC0044F60001C2F20000C4F20001B7
:102580000C234FF4E13280E81600C0E90344C0E9AF
:102590000534C461FFF77AFA20B1EFF3108072B608
:1025A000FEE700BFFEF7BCFAFFF748FC40F2CC00A4
:1025B00009F10101C2F200000122FFF7D5FA00BFC4
:1025C000FEE7000080B5D0F804C0D0F80CE062440B
:1025D000B2FBFEF303FB1E2203699A4202D8006895
:1025E000805C087000209A4288BF012080BD0000F6
:1025F00002688368D154026932B1C1688A4209D243
:10260000013202610FE000BF002141600122C16878
:10261000026108E007D141680131B1FBF2F303FB2D
:1026200012114160114682680132B2FBF1F303FBE3
:10263000112181607047000070B540F27006C2F24F
:1026400000063278082A4DD80446DFE802F0050B70
:102650000F191D31372D4900AB2945D101203070AC
:1026600070BD00BF0220B170307070BDF170B078E5
:10267000F17841EA0020F0800320307070BD00BF87
:102680000420307070BD00BF2046FFF7BFFE054636
:102690002046FFF7BDFE281AF1880438884218BF8B
:1026A00070BD0520307070BD0020307070BD00BF5F
:1026B000BA2912D10620307070BD00BFF08800200A
:1026C000002500BFC21C2046FFF77CFFF088F18880
:1026D0000135E8B203318142F4D80820307070BD72
:1026E0000020307070BD00BF2046BDE87040FFF78D
:1026F00085BE5FEA400C08BF91F0000F4FEA8C23C3
:102700004FEAC12243EA51514FEA1C5018BF00F56D
:10271000F0404FEA300018BF41F000415FEA6C5CC6
:1027200000F02980BCF1FF3F08BF40F080407047B7
:10273000130C06BF12044FF0100C4FF0000C130ED8
:1027400004BF12020CF1080C130F04BF12010CF1AC
:10275000040C930F04BF92000CF1020CD30F04BFC2
:1027600052000CF1010C11464FF00002A0F11F00C5
:10277000A0EB0C00704711F0004F08BF704731F01C
:1027800000413FF4D5AF0B0C06BF09044FF0100C0D
:102790004FF0000C0B0E04BF09020CF1080C0B0FDC
:1027A00004BF09010CF1040C8B0F04BF89000CF16C
:1027B000020CCB0F04BF49000CF1010CCCF120033B
:1027C00022FA03F341EA030102FA0CF2A0EB0C0037
:1027D00000F101007047000023F07F4720F07F4C9C
:1027E00080EA030000F00040ACEB070303F57C53E4
:1027F00003F1FF032DE9804909B44FEA144324EAA9
:1028000003484FEA154B25EA0B4E0FF2042606EB60
:1028100013273E7803FB0667C7F5000707FB06F69C
:102820004FEAD64606F102064FEA543707FB066C1C
:10283000CCF1005C4FEA1C472CEA074C0CFB06F578
:1028400007FB06F404EB15464FEA961649085FEAC3
:10285000320234BF00204FF000404FEAD13706FB70
:1028600007FC4FEA1C4C0CFB0BF7D21B03FB0CF7CD
:1028700061EB07010CFB0EF7B0EB074072EB174260
:102880000CFB08F734BFA2EB0742B2EB074261EB47
:1028900017414FEA0C444FEA910706FB07FC4FEA49
:1028A0001C4C0CFB0BF7B0EBC74072EB573203FB31
:1028B0000CF734BFA2EBC742B2EBC74261EB573112
:1028C0000CFB0EF7B0EBC70072EB57720CFB08F76E
:1028D00034BFA2EBC702B2EBC70261EB57714FEAFC
:1028E000816141EA92114FEA826242EA90124FEA14
:1028F000806004EBCC04039F4FEAD13706FB07FC52
:102900004FEA1C4C0CFB0BF7D21B03FB0CF761EBE3
:1029100007010CFB0EF7B0EB074072EB17420CFB04
:1029200008F734BFA2EB0742B2EB074261EB174155
:102930004FEA8C5504EB9C244FEA910706FB07FCF9
:102940004FEA1C4C0CFB0BF7B0EBC74072EB573255
:1029500003FB0CF734BFA2EBC742B2EBC74261EBFB
:1029600057310CFB0EF7B0EBC70072EB57720CFB44
:1029700008F734BFA2EBC702B2EBC70261EB577195
:102980004FEA816141EA92114FEA826242EA901273
:102990004FEA806015EB4C2544F100044FEAD13733
:1029A00006FB07FC4FEA1C4C0CFB0BF7D21B03FB8E
:1029B0000CF761EB07010CFB0EF7B0EB074072EB75
:1029C00017420CFB08F734BFA2EB0742B2EB0742F9
:1029D00061EB17414FEA813141EA92414FEA82327D
:1029E00042EA90424FEA80304FEA0C7615EB1C1514
:1029F00044F1000448EA03434EEA0B484FF0000E4E
:102A0000B2EB080C71EB030724BF624639464EEB6C
:102A10000E0E4FF0000B0018524149414BEB0B0BCF
:102A2000B2EB080C71EB03077BF1000B24BF62468D
:102A300039464EEB0E0E4FF0000B00185241494143
:102A40004BEB0B0BB2EB080C71EB03077BF1000BAC
:102A500024BF624639464EEB0E0E51EA020718BFFC
:102A600046F0010616EB0E7655F1000254F1000116
:102A700003D5BDE88901BDE80088BDE88901BDE84E
:102A80000048B619524141EB0101A3F1010370471F
:102A900080807F7E7D7C7B7A79787776767574739B
:102AA000727171706F6E6E6D6C6C6B6A6A6968685A
:102AB000676666656464636362616160605F5F5EF0
:102AC0005E5D5D5C5C5B5B5A5A5959585857575666
:102AD00056555555545453535252525151505050CB
:102AE0004F4F4F4E4E4D4D4D4C4C4C4B4B4B4A4A1D
:102AF0004A49494948484847474747464646454561
:102B00004544444444434343434242424241414199
:102B10009C46002B30D477002BD04FEA37071CB5EA
:102B200003B44FF010004FF01001BAF1000F06D0BF
:102B3000BCF1000FDCBF40F0080040F008014FF08E
:102B400000000FBCBDE810400BF1010BBBF1010F01
:102B500008BF5FEA170722BF12F1010211F101015C
:102B60004FF0004143F1000300F0004043EA000051
:102B70007047F9D35708D0E746EA06464FEA1646AB
:102B800013F1400F1FDD13F1200FDFBF16430A467C
:102B9000002120335B42BED0C3F1200746EA06463F
:102BA0004FEA164602FA07F746EA070622FA03F248
:102BB000C3F1200701FA07F742EA070221FA03F1FD
:102BC0004FF00003A7E746EA020646EA06464FEA48
:102BD000164646EA0106BCBF46EA0646360C4FF0EA
:102BE00000034FF000024FF0000194E72DE9804C04
:102BF00070B49A46934691E8380007C831EA400C11
:102C000048BF34EA430C03D5FFF7E6FDFFF780FF2A
:102C1000F0BCBDE8008C2DE9804C70B49A46934618
:102C200091E8380007C810F0804F08BF13F0804FBC
:102C300003D100F005F8FFF76BFFF0BCBDE8008C96
:102C400020F07F4723F07F4C80EA030000F0004033
:102C500007EB0C03A3F57C53A3F1FE0392F0000FE6
:102C600000F0B38095F0000F00F077802DE9014966
:102C70004FEA114021EA00484FEA144624EA064789
:102C800000FB06FC08FB06F607FB08F818EB0648F5
:102C90004CEB164C00FB07F718EB07484CEB1740C2
:102CA0004FEA124B22EA0B4E4FEA154625EA064739
:102CB0000BFB06FC0EFB06F607FB0EFE1EEB064E9C
:102CC0004CEB164C0BFB07F71EEB074E4CEB174B70
:102CD00018EB0B0840F1000018EB0E0B58EB000846
:102CE00040F100008F1A4FF000014FF000063CBF8A
:102CF000C943661B14BFB5EB040C00213CBFC9439C
:102D0000F61B4FEA174427EA04454FEA1C472CEA12
:102D1000074C04FB076205FB07F70CFB05F616EBF7
:102D2000074642EB174204FB0CFC16EB0C4642EB49
:102D30001C421BEB060658EB020241414EEA8E0E86
:102D400046EA9E0601D5BDE80189B619524141EB1C
:102D50000101A3F10103BDE801894FEA144524EA0A
:102D600005464FEA114721EA074C05FB07F406FB2D
:102D700007F70CFB06F111EB074144EB174405FB89
:102D80000CFC11EB0C4144EB1C444FEA124722EAC5
:102D9000074C05FB07F206FB07F70CFB06F616EBE4
:102DA000074642EB174205FB0CFC16EB0C4642EBC8
:102DB0001C456A1854F1000148BF7047B6195241CA
:102DC00041EB0101A3F10103704795F0000F37D0EB
:102DD0004FEA114221EA02464FEA144724EA074C1F
:102DE00002FB07F106FB07F70CFB06F414EB0744A4
:102DF00041EB174102FB0CFC14EB0C4441EB1C4172
:102E00004FEA154725EA074C02FB07F506FB07F7D3
:102E10000CFB06F616EB074645EB174502FB0CFCD0
:102E200016EB0C4645EB1C42121951F1000148BF4C
:102E30007047B619524141EB0101A3F101037047FC
:102E40004FEA144524EA05464FEA114721EA074CA8
:102E500005FB07F106FB07F70CFB06F212EB074236
:102E600041EB174105FB0CFC12EB0C4251EB1C41F2
:102E70004FF0000648BF7047921841EB0101A3F1E3
:102E80000103704703B401984100009850EAC12043
:102E900018BF04204A0D18BF40F0010040F2FF7235
:102EA000B2EB515F08BF40F00200012808BF0520C7
:102EB00002B0704710B500290AD00878002807D062
:102EC00005487844FDF7BCFD002801D0002010BD66
:102ED0000248784410BD0000F6020000EE02000037
:102EE000F1EE100A4FF6FF71C0F2C03120EA010086
:102EF00040F04070E1EE100A7047FDF73BBB000068
:102F000002400000000000A000000000054000009A
:102F1000000000C8000000000C4000000000409CC1
:102F200000000000194000000020BCBE00000000AE
:102F300034400000BFC91B8E00000004B5400000F3
:102F4000504BCFD06607E2CF010000006C4100007B
:102F50003E8251AADFEEA73401000000D9420000F2
:102F6000DCB5A0E23A301F97FFFFFFFFB445000039
:102F7000FD25A0C8E9A3C14FFFFFFFFFFF3F0000F1
:102F80000000008000000000FF3F00000000008003
:102F90000000000000000000000000000102030427
:102FA000060708090000000001020304496E746569
:102FB000727275707400000000000000005F000075
:102FC0000007000700147F147F14242A7F2A12238D
:102FD0001308646236495522500005030000001CA6
:102FE0002241000041221C0014083E081408083E3B
:102FF0000808005030000008080808080060600059
:103000000020100804023E5149453E00427F400026
:1030100042615149462141454B311814127F102716
:10302000454545393C4A494930017109050336494E
:10303000494936064949291E0036360000005636F1
:103040000000081422410014141414140041221426
:10305000080201510906324979413E7E1111117E63
:103060007F494949363E414141227F4141221C7FEF
:10307000494949417F090909013E4149497A7F0887
:1030800008087F00417F41002040413F017F081434
:1030900022417F404040407F020C027F7F040810A5
:1030A0007F3E4141413E7F090909063E4151215E73
:1030B0007F09192946464949493101017F01013FEC
:1030C0004040403F1F2040201F3F4038403F631496
:1030D00008146307087008076151494543007F41A0
:1030E000410002040810200041417F000402010257
:1030F00004404040404000010204002054545478F1
:103100007F484444383844444420384444487F3855
:1031100054545418087E0901020C5252523E7F0842
:1031200004047800447D40002040443D007F102886
:10313000440000417F40007C041804787C080404AB
:103140007838444444387C14141408081414187C47
:103150007C080404084854545420043F4440203C54
:103160004040207C1C2040201C3C4030403C4428F7
:103170001028440C5050503C4464544C44000836D1
:10318000410000007F0000004136080010080810D0
:103190000878464146780000D83100080000002039
:1031A00010000000C4010008E831000810000020F1
:1031B00008070000E00100081C00000043000000B8
:1031C000F8FFFFFF0C0000000E0000000F000000E1
:1031D0002E000000000000000100000010000000B0
:0831E0000024F40000000000CF
:040000050800018965
:00000001FF
