:020000040800F2
:100000002007002029020008091B0008011B000826
:10001000051B000821040008C92200080000000098
:10002000000000000000000000000000A520000803
:10003000A504000800000000A1200008A920000875
:10004000430200084302000843020008430200087C
:10005000430200084302000843020008430200086C
:10006000430200084302000843020008430200085C
:10007000430200084302000843020008430200084C
:10008000430200084302000843020008430200083C
:10009000430200084302000843020008430200082C
:1000A000430200084302000843020008430200081C
:1000B000430200084302000843020008430200080C
:1000C00043020008430200084302000843020008FC
:1000D000430200084302000843020008BD22000852
:1000E00043020008430200084302000843020008DC
:1000F00043020008430200084302000843020008CC
:1001000043020008430200084302000843020008BB
:1001100043020008430200084302000843020008AB
:10012000430200084302000843020008430200089B
:100130004302000800000000000000004302000825
:10014000430200084302000843020008430200087B
:10015000430200084302000843020008430200086B
:10016000430200084302000843020008430200085B
:100170004302000843020008000000004302000898
:10018000430200084302000800F002F800F03CF8C7
:100190000AA090E8000C82448344AAF10107DA45E2
:1001A00001D100F031F8AFF2090EBAE80F0013F0F8
:1001B000010F18BFFB1A43F001031847082900007C
:1001C00028290000103A24BF78C878C1FAD852070D
:1001D00024BF30C830C144BF04680C6070470000C1
:1001E0000023002400250026103A28BF78C1FBD840
:1001F000520728BF30C148BF0B6070471FB502F0DF
:1002000056FB1FBD10B510BD00F0D0F81146FFF72A
:10021000F5FF02F05BF900F0EEF803B4FFF7F2FF30
:1002200003BC00F0F5F80000094880470948004782
:10023000FEE7FEE7FEE7FEE7FEE7FEE7FEE7FEE796
:10024000FEE7FEE704480549054A064B70470000F3
:10025000AD200008890100082001002020070020AF
:10026000200300202003002053EA020C00F06980E4
:100270002DE9F04B4FF00006002B1FBFB3FA83F5BA
:1002800003FA05F424FA05F65E4012BF1643B2FAEB
:1002900082F502FA05F4C5F120051EBF22FA05FC1D
:1002A00044EA0C04203556EA044C4FEA144418BFC3
:1002B000641C4FF000084FF00009904271EB030CF2
:1002C00039D3002919BFB1FA81F701FA07F6B0FA5C
:1002D00080F700FA07F6C7F120071EBF20FA07FCD7
:1002E00046EA0C062037B6FBF4FCA7EB0507103FE7
:1002F00007F01F0BCBF120062CFA06F60CFA0BFBCD
:1003000044BFB3460026202FA4BF5E464FF0000B2B
:100310005BEA060C08BF4FF0010B19EB0B0948EB29
:100320000608ABFB027C06FB02CC0BFB03CCC01B1C
:1003300071EB0C01C1E70B46024641464846BDE859
:10034000F08B13B5084318BF4FF0FF300146AFF3F1
:100350000080BDE81C4070474FF0000200B5134616
:1003600094469646203922BFA0E80C50A0E80C50D5
:10037000B1F12001BFF4F7AF090728BFA0E80C5086
:1003800048BF0CC05DF804EB890028BF40F8042B7F
:1003900008BF704748BF20F8022B11F0804F18BFEC
:1003A00000F8012B7047704770477047754600F0A2
:1003B0002BF8AE4605006946534620F007008546F7
:1003C00018B020B5FFF73EFFBDE820404FF0000613
:1003D0004FF000074FF000084FF0000BAC46ACE8C0
:1003E000C009ACE8C009ACE8C009ACE8C00921F01C
:1003F00007018D46704710B50446AFF300802046D4
:10040000BDE81040FFF709BF00487047100000200A
:1004100001491820ABBEFEE726000200704700002D
:10042000FEE7000041F2040140F20803CEF20001B1
:10043000C2F200030A68D3F800C04DF68363C4F229
:100440001B33ACFB033C4FEA9C43584309E000BF1D
:100450000B689B1A834228BF70470B689B1A834224
:1004600007D20B689B1A834203D20B689B1A834204
:10047000EED370474EF6FC50CEF200000168C90181
:1004800048BF7047016841F08071016041F200008F
:10049000CEF2000000214160016841F001010160DD
:1004A000704700007047000070B5866D044600F08C
:1004B00043F994F83510022928D105462068216CAB
:1004C000026822F016020260426922F08002426154
:1004D00009B9A16C19B1016821F008010160016836
:1004E00021F00101016000BF20680068C00715D03D
:1004F00000F022F9401B0628F6D320206065032077
:1005000084F83500002184F8341070BD80206065C7
:100510000120002184F8341070BD00BFE06D3F2140
:1005200001FA00F0B060012084F8350000200021BD
:1005300084F8341070BD000090F83510022909D1FC
:10054000052180F835100068016821F00101016083
:10055000002070478021416501207047B0B50446F6
:1005600000F0EAF8054640F20000C2F20000007810
:10057000611C18BF044400BF00F0DEF8401BA0421D
:10058000FAD3B0BD2DE9F04F82B000F13E4241F602
:10059000004502F1FF77C4F20205082243F6004E3F
:1005A0004FEAB726A84208BF0722C4F2010E072E61
:1005B00038BF4FEAB7220125002600274FF0000878
:1005C000009208E008F101080437B8F1100F06F1B5
:1005D000020600F0A7800C6805FA08F914EA090F72
:1005E000F0D0D1F804B003220BF0030CACF10104FD
:1005F000B240012C6FEA020A10D88268CC6802EA85
:100600000A02B440224382604268CBF3001422EA1B
:10061000090204FA08F42243426005E0BCF1030F2A
:1006200002D14FF0030C20E0C2688C6802EA0A0293
:10063000B4402243BCF1020FC26016D16FF0030236
:1006400002EA58020244D2F820C007F01C050F232A
:100650000C69AB402CEA030304FA05F52B43136243
:10066000D1F804B001250BF0030C02680CFA06F374
:1006700002EA0A021A431BF4403F0260A2D00022A1
:1006800043F644030192C4F202031A684FF6084C81
:1006900042F480421A601A68CFF6FF7C02F480426E
:1006A0000192019A28F00302724452F80C3007F0CC
:1006B0000C050F24AC40A343009C04FA05F52B4322
:1006C00042F80C30DEF808204B6842EA090543F690
:1006D0000C4CDC0258BF22EA0905CEF80850C4F2DF
:1006E000010CDCF800209C0242EA090558BF22EA0E
:1006F0000905CCF80050DEF804209C0342EA090505
:1007000058BF22EA0905CEF80450DEF80020DB03CA
:1007100042EA090558BF22EA0905CEF80050012532
:1007200050E700BF02B0BDE8F08F0000002A08BF0C
:10073000090481617047000040F21810C2F2000005
:100740000068704740F2000040F21811C2F2000049
:10075000C2F2000100780A68104408607047000087
:1007600080B543F60040C4F20200016841F4007114
:100770000160016841F480610160016841F48071A9
:100780000160032000F088F80F2000F005F800F069
:1007900027F8002080BD000070B540F20006C2F2CC
:1007A000000640F208013278C2F200014FF47A7379
:1007B0000968B3FBF2F20446B1FBF2F1084600F01F
:1007C00043FB0F2C4FF0010508D838B94FF0FF302C
:1007D00021460022002500F033F87460284670BDE1
:1007E00082B0002043F640010190C4F202014A6841
:1007F00042F480424A604A6802F480420192019ABF
:100800000090086840F080500860086800F0805050
:100810000090009802B07047002848BF7047C1B2EE
:1008200000F01F00012202FA00F04EF20012CEF298
:10083000000242EAD10121F0030108607047000084
:1008400010B54EF60C5CCEF2000CDCF80030C3F3B1
:10085000022E8EF00704042C28BF0424BEF10303EB
:100860004FF0FF3E0EFA04F438BF0023A143994035
:100870000EFA03F39A43114300F00F0200F16043B4
:100880000901043A03F564436244002848BF02F1B9
:100890000C03197010BD00004EF60C51CEF2000191
:1008A0000A684FF6FF031A4060F30A2242F08060A4
:1008B00040F0FD70086070472DE9F041002800F01D
:1008C0008B8043F60808C4F202080446D8F8F803FF
:1008D0000D4600F00700884207D288F8F853D8F890
:1008E000F80300F00700A84276D12068810717D5E9
:1008F000410705D5D8F8001041F4E051C8F80010C0
:10090000010705D5D8F8001041F46041C8F800107F
:10091000D8F80010A26821F0F0011143C8F80010C7
:10092000C0073FD1D8F8F80300F00700A84207D964
:1009300088F8F853D8F8F80300F00700A8424BD124
:100940002068410707D5D8F80010E26821F4E0518B
:100950001143C8F80010000708D5D8F80000216935
:1009600020F4604040EAC100C8F8000000F07CF8C4
:10097000D8F8001042F6C802C1F30311C0F6000215
:10098000515C40F2080220FA01F140F20400C2F288
:1009900000000068C2F200021160FFF7FDFE0020B7
:1009A000BDE8F0816068811E022907D258F8081C52
:1009B00089015CBF0120BDE8F08111E0012807D169
:1009C00058F8081C89035CBF0120BDE8F08107E0EE
:1009D00058F8081C890703D40120BDE8F08100BF46
:1009E000D8F8001021F003010843C8F80000FFF711
:1009F000A3FE064641F28837D8F80000616800F08F
:100A00000C00B0EB810F8DD0FFF796FE801BB84233
:100A1000F2D90320BDE8F08140F2080043F6080156
:100A2000C2F20000C4F202010068096842F6D8026E
:100A3000C1F38221C0F60002515CC840704700003B
:100A400040F2080043F60801C2F20000C4F20201BD
:100A50000068096842F6D802C1F34231C0F60002CC
:100A6000515CC8407047000010B543F60404C4F25E
:100A70000204606800F00C0008280BD0042819BF9D
:100A800042F20040C0F2F40047F64000C0F27D1090
:100A900010BD00BF206821682368490247F6400165
:100AA000C0F27D1100F03F02C3F388105CBF42F238
:100AB0000041C0F2F401A1FB00010023FFF7D4FBC9
:100AC00021680222C1F3014102EB4101B0FBF1F0C8
:100AD00010BD00002DE9F04182B0002868D0044626
:100AE000007843F60006C007C4F202060BD0B068D7
:100AF00000F00C00042840F09F803068800302D58D
:100B00006068002854D0207880071AD5B06810F0AB
:100B10000C0F09D0B06800F00C00082840F0A68047
:100B20007068400200F1A2803068800702D5E0685A
:100B300001283DD13068216920F0F80040EAC10069
:100B400030602078000737D4207840074CD4A5695E
:100B500055B3B06800F00C00082840F0BB80012DB0
:100B600026D07068E16900F480028A4220D1216AAF
:100B700000F03F028A421BD147F6C071626A014011
:100B8000B1EB821F14D1A16A4FF6FF73C9039943D9
:100B900000F44032A1F580318A4209D1E16A00F0C7
:100BA0007060B0EB016F03D1002002B0BDE8F081AE
:100BB000012002B0BDE8F0816069002840F2000029
:100BC000C4F2472076D00121C0F8801EFFF7B4FDA3
:100BD000054600BF706F8007B6D4FFF7ADFD401B20
:100BE0000228F7D9DDE000BF306C10F080580AD140
:100BF00000200190306C40F080503064306C00F088
:100C000080500190019847F20007C4F2000738684D
:100C1000C00541D4386840F480703860FFF78CFD1F
:100C2000054600BF3868C00536D4FFF785FD401B78
:100C30000228F7D9B5E000BFB06800F00C00082822
:100C400003D1706840023FF558AF6068B0F5803F4F
:100C500007D0B0F5A02F40F08D80306840F48020A0
:100C60003060306840F4803030608DE0E06800280B
:100C700052D00020C4F2472001210160FFF75CFD43
:100C8000054600BF306880073FF554AFFFF754FDBD
:100C9000401B0228F6D984E0A068012805D0052869
:100CA0004ED1306F40F004003067306F40F00100EB
:100CB00030674FE00021C0F8801EFFF73DFD05467C
:100CC000706F80077FF540AFFFF736FD401B0228AD
:100CD000F6D966E00027C4F2472700203866FFF700
:100CE0002BFD022D05460BD1306880015ED5FFF744
:100CF00023FD401B02284FF00300F5D955E700BF44
:100D0000306880017FF550AFFFF716FD401B0228C9
:100D10004FF00300F4D948E70020C4F24720002137
:100D20000160FFF709FD0546306880077FF509AFD0
:100D3000FFF702FD401B02284FF00300F4D934E70F
:100D4000316F002821F001013167316F21F004017A
:100D500031674DD0FFF7F0FC054641F2883700BF00
:100D6000306F800756D4FFF7E7FC401BB842F7D935
:100D700017E000BF3168002821F48031316031680C
:100D800021F4802131604FD0FFF7D6FC054600BF2B
:100D9000306880033FF5B7AEFFF7CEFC401B6428F8
:100DA000F6D9032002B0BDE8F08100BF04F11C05B4
:100DB0002FCD084340EA8210D9034FF6FF729143CA
:100DC000A1F5803140EA0560084370600120386673
:100DD000FFF7B2FC044600BF306880013FF5E4AE87
:100DE000FFF7AAFC001B02284FF00300F4D9DCE651
:100DF000FFF7A2FC054641F2883700BF306F80073D
:100E000008D5FFF799FC401BB8424FF00300F5D915
:100E1000CBE600BFB8F1000F7FF499AE306C20F044
:100E20008050306493E600BFFFF786FC054600BFA4
:100E3000306880037FF567AEFFF77EFC401B6428B7
:100E40004FF00300F4D9B0E6411E0020B0EB116F63
:100E50001CBF012070474EF21002CEF2000251601A
:100E60004EF62351CEF20001F0230B700721906063
:100E7000116070477047000070470000B0B582B045
:100E8000044600680168C368426901F02F05202DFF
:100E900003F0200506D12DB1204602B0BDE8B040D8
:100EA00001F014B95FEA017C1EBF02F0010E03F4E9
:100EB000907212EB0E0253D1226B012A05D111F070
:100EC000100218BF13F0100236D10A0622D513F013
:100ED00080021FD094F83D1021293FD1A168B1F5BF
:100EE000805F03D12169002900F07282216A4A1CC7
:100EF000226209784160E18C01390A04E1842DD134
:100F0000C16821F08001C160C16841F04001C16049
:100F100002B0B0BD490621D513F040011ED0C16812
:100F200021F04001C1602021204684F83D1002B02C
:100F3000BDE8B04000F0E2BD0021019101680191DF
:100F40004168019101994069400613D4A08DE18D5B
:100F5000E28D002A18BF884240F0BE8102B0B0BDC9
:100F6000CA0718BF13F4807240F0BA804A0700F134
:100F7000BD80C2E0A16B0868426893B2002BEDD03F
:100F8000A08D8342EAD2E285C969B1F5807F00F085
:100F90009D80206850E8030F216820F4807041E8AC
:100FA0000302DAB1206850E8030F216820F4807052
:100FB00041E8030292B1206850E8030F216820F451
:100FC000807041E803024AB1206850E8030F2168AD
:100FD00020F4807041E80302002ADAD1206850E84A
:100FE000050F216820F0010041E80502DAB1206810
:100FF00050E8050F216820F0010041E8050292B198
:10100000206850E8050F216820F0010041E8050242
:101010004AB1206850E8050F216820F0010041E83E
:101020000502002ADAD1206850E8050F216820F077
:10103000400041E80502DAB1206850E8050F216858
:1010400020F0400041E8050292B1206850E8050F09
:10105000216820F0400041E805024AB1206850E8CC
:10106000050F216820F0400041E80502002ADAD18E
:10107000202084F83E0000202063206850E8030F01
:10108000216820F0100041E80302DAB1206850E83E
:10109000030F216820F0100041E8030292B120689C
:1010A00050E8030F216820F0100041E803024AB124
:1010B000206850E8030F216820F0100041E8030287
:1010C000002ADAD1A06BFFF7EFF9A08DE18D401A6D
:1010D00081B2204602B0BDE8B040FFF7CBBE00BFF2
:1010E000226C42F0010222644A0706D5BEF1000FCD
:1010F00003D0226C42F0020222648A0706D5BEF1B8
:10110000000F03D0226C42F004022264BCF1000FF5
:1011100009D545EA0E02B2FA82F2520903D1226CD5
:1011200042F008022264226C002A3FF417AF11F04B
:10113000200118BF002D03D0204600F0C7FF206813
:101140004069216C00F0400001F00801401800F0F7
:10115000B58000BF206850E8030F216820F490702C
:1011600041E80302BAB3206850E8030F216820F475
:10117000907041E8030272B3206850E8030F2168C1
:1011800020F4907041E803022AB3206850E8030F6E
:10119000216820F4907041E80302002ADAD11AE0B5
:1011A000206850E8050F216820F0010041E80502A1
:1011B000DAB1206850E8050F216820F0010041E80D
:1011C000050292B1206850E8050F216820F0010067
:1011D00041E805024AB1206850E8050F216820F077
:1011E000010041E80502002ADAD1206B012824D150
:1011F000206850E8030F216820F0100041E8030246
:10120000DAB1206850E8030F216820F0100041E8AF
:10121000030292B1206850E8030F216820F010000B
:1012200041E803024AB1206850E8030F216820F02A
:10123000100041E80302002ADAD1202084F83E00A1
:10124000002020632068406940063FD5206850E8B0
:10125000050F216820F0400041E80502DAB120685E
:1012600050E8050F216820F0400041E8050292B1E6
:10127000206850E8050F216820F0400041E8050291
:101280004AB1206850E8050F216820F0400041E88D
:101290000502002ADAD1A06BC0B142F2C101C0F64A
:1012A00000010165FFF748F900283FF457AEA06B35
:1012B000016D02B0BDE8B040084700BF2046FFF70F
:1012C000DBFD0020206402B0B0BD00BF204602B0AC
:1012D000BDE8B040FFF7D0BD401A216851E8031FB8
:1012E000226821F4907142E80313DBB1216851E8D0
:1012F000031F226821F4907142E8031393B121681F
:1013000051E8031F226821F4907142E803134BB1A6
:10131000216851E8031F226821F4907142E8031309
:10132000002BDAD1216851E8051F226821F0010164
:1013300042E80513DBB1216851E8051F226821F05E
:10134000010142E8051393B1216851E8051F2268A5
:1013500021F0010142E805134BB1216851E8051F56
:10136000226821F0010142E80513002BDAD1202187
:1013700084F83E1000212163216851E8031F226890
:1013800021F0100142E80313002B3FF4A1AE2168C5
:1013900051E8031F226821F0100142E80313002BDB
:1013A0003FF496AE216851E8031F226821F0100136
:1013B00042E80313002B3FF48BAE216851E8031F72
:1013C000226821F0100142E80313002BD4D17FE6FC
:1013D000216A31F8022B6FF35F22426021628AE5B5
:1013E000002804BF0120704710B5044690F83D0066
:1013F00028B9002084F83C00204600F021F8242081
:1014000084F83D002068C16821F40051C160204685
:1014100000F0DCFE2068016921F49041016141691E
:1014200021F02A014161C16841F40051C1600020EE
:101430002021206484F83D1084F83E1010BD000087
:1014400080B586B0016844F60000C4F20000814215
:1014500002D006B080BD00BF002143F630020191EA
:10146000C4F20202136900F5DE3043F480231361F5
:10147000136903F480230193019B0191136843F0E6
:1014800002031360126802F002020192019A4FF403
:10149000406201920222CDE9022103210491072139
:1014A000059101A9FFF76EF8272000210022FFF720
:1014B000C7F92720FFF7B0F906B080BD90F83E309D
:1014C000202B0BD100294FF0010318BF002A01D1B6
:1014D0001846704790F83C30012B01D1022070472C
:1014E00000230363816222218285C285036480F820
:1014F0003E100269016880F83C301AB1C86840F4B7
:101500008070C8604869002340F001004861C868E5
:1015100040F02000C8601846704700002DE9F041F7
:1015200082B040F27008C2F2000840F2D40008F124
:101530000101C2F200000122FFF7C0FF98F800008D
:10154000082800F29381DFE810F0090057007300CB
:101550009D00BF00E5000B013D014F010025C4F2D5
:101560000205002005F50064C8F80600C8F80C0064
:10157000204604210022FFF7D9F82046012100224D
:101580000127FFF7D3F8284604210022FFF7CEF801
:10159000284601210022FFF7C9F828464FF4807140
:1015A0000022FFF7C3F8204602210022FFF7BEF811
:1015B000284608210022FFF7B9F828460221002218
:1015C000FFF7B4F898F80100AB2840F04F8108F11C
:1015D0001000AB2101F0C8F8204604210122FFF7DA
:1015E000A5F8D8F80C0088F800700130C8F80C0095
:1015F00002B0BDE8F08100BF98F8011008F11000BA
:1016000001F0B2F898F80100042188F802000020E7
:10161000C4F2020000F5006420460022FFF786F8BD
:10162000204601210122FFF781F802201FE000BFC0
:1016300098F8011008F1100001F096F898F80100F0
:101640000024C4F2020488F8030004F500600121BC
:101650000022FFF76BF8204604210122FFF766F80D
:10166000B8F8020000BA000CA8F806000320D8F869
:101670000C1088F80000481CC8F80C0002B0BDE847
:10168000F08100BF98F8011008F1100001F06CF82B
:101690000024C4F202042046042100220425FFF79E
:1016A00045F8204601210122FFF740F898F8010093
:1016B00088F8005088F80400D8F80C000130C8F809
:1016C0000C0002B0BDE8F08198F8011008F110009C
:1016D00001F04AF80024C4F202042046012100224D
:1016E000FFF724F820464FF480710122FFF71EF81F
:1016F000B8F80610D8F80C000331421C8842C8F82C
:101700000C2040F0B380052088F8000002B0BDE84E
:10171000F08100BF98F8011008F1100001F024F8E2
:101720000024C4F2020420464FF480710022FEF728
:10173000FDFF04F5006002210122FEF7F7FFD8F853
:101740000C0098F801100130BA29C8F80C0014BF39
:101750000720062088F8000002B0BDE8F08100BF35
:1017600098F8011008F11004204600F0FDFF002554
:10177000C4F2020505F50060022100220027FEF7F1
:10178000D5FF284608210122FEF7D0FF0DF10705FD
:10179000002604E00136F7B20330B8423CD9FA1C07
:1017A0002046294600F06AFFB8F80600411CB942FD
:1017B000F0D09DF80710B8F808201144A8F80810D8
:1017C000E8E700BF002508F1100488F8005000BFCA
:1017D000204600F069FEB8F806000135E9B206308F
:1017E0008842F5D842E000BF0024C4F2020420463B
:1017F00008210022FEF79AFF204602210122FEF76F
:1018000095FF98F8041008F11000022918D001295A
:101810001AD100F0C5FF19E0B8F80800072100EB65
:101820001020C0B2FF2808BF0821D8F80C0088F8A3
:1018300000100130C8F80C0002B0BDE8F08100BF14
:1018400000F032FF02E000BF00F040FD002508F18B
:10185000100488F8005000BF204600F025FEB8F8BC
:1018600006000135E9B206308842F5D802B0BDE87D
:10187000F08100002DE9F04381B0044690F83D006E
:1018800020280DD10F4600294FF0010000F0DD8027
:101890001646002A00F0D98094F83C00012803D1B4
:1018A000022001B0BDE8F083012084F83C00002054
:1018B000206421201D4684F83D00FEF73DFFA684EC
:1018C000E684A1680646B1F5805F03D1206900284F
:1018D00000F01081B8460027002084F83C00E18C1D
:1018E0002068002900F0908005F101090DE000BF9B
:1018F000B8F1000F28D018F8011B4160E18C0139C4
:10190000E184E18C002900F07F8001680906EFD4B2
:10191000B9F1000F0AD0FDB1FEF70EFF801BA842FF
:101920001AD8206801680906F6D5E1E701680906BA
:10193000DED4016809065CBF01685FEA0161D7D4A3
:1019400001680906F2D5D3E737F8021B4FF000080B
:101950006FF35F21D1E700BF206850E8030F2168D3
:1019600020F4D07041E80302BAB3206850E8030FB6
:10197000216820F4D07041E8030272B3206850E877
:10198000030F216820F4D07041E803022AB32068D5
:1019900050E8030F216820F4D07041E80302002AC8
:1019A000DAD11AE0206850E8050F216820F0010024
:1019B00041E80502DAB1206850E8050F216820F0FF
:1019C000010041E8050292B1206850E8050F216846
:1019D00020F0010041E805024AB1206850E8050FF7
:1019E000216820F0010041E80502002ADAD1202018
:1019F00084F83D0084F83E00002084F83C00032079
:101A000001B0BDE8F08300BF0168490619D4FDB1FB
:101A1000691C0DD10168490613D4016849065CBFF1
:101A200001685FEA41610CD401684906F2D508E01B
:101A3000FEF782FE801BA8420AD820680068400694
:101A4000F6D5202084F83D00002001B0BDE8F083E9
:101A5000206850E8030F216820F4D07041E80302A9
:101A6000E2B3206850E8030F216820F4D07041E809
:101A700003029AB3206850E8030F216820F4D07065
:101A800041E8030252B3206850E8030F216820F4B4
:101A9000D07041E80302002ADAD11FE0206850E844
:101AA000050F216820F0010041E80502002A9ED0C0
:101AB000206850E8050F216820F0010041E8050288
:101AC000002A3FF494AF206850E8050F216820F009
:101AD000010041E80502002A3FF489AF206850E880
:101AE000050F216820F0010041E80502002AD5D148
:101AF0007DE700BF4FF00008EEE6000070470000F1
:101B0000FEE70000FEE70000FEE700002DE9F041DF
:101B100040F200080746C4F20208082015460E46A7
:101B200054B260F3DF0740464FF480410022FEF7D5
:101B3000FDFD404610210022FEF7F8FD384600F07A
:101B4000F9F9404610210122FEF7F0FD40464FF41E
:101B50008041002246F08006FEF7E8FD4046102155
:101B60000022FEF7E3FD304600F0E4F94046102184
:101B70000122FEF7DBFD202CB8BFBDE8F08105EBAC
:101B80008500502D3FBF6030C1B242F6E002C0F682
:101B9000000221BF7030C1B242F6D012C0F600027E
:101BA000555C52FA80F740464FF480410122FEF71F
:101BB000BDFD404610210022FEF7B8FD284600F08A
:101BC000B9F9404610210122FEF7B0FD40464FF41E
:101BD00080410122FEF7AAFD404610210022FEF7B7
:101BE000A5FD7878BE78FD7800F0A4F94046102174
:101BF0000122FEF79BFD40464FF480410122FEF793
:101C000095FD404610210022FEF790FD304600F081
:101C100091F9404610210122FEF788FD40464FF41D
:101C200080410122FEF782FD404610210022FEF78E
:101C30007DFD284600F07EF9404610210122FEF786
:101C400075FD381D057840464FF480410122FEF7AE
:101C50006DFD404610210022FEF768FD284600F089
:101C600069F9404610210122FEF760FD40464FF41D
:101C700080410122FEF75AFD404610210022FEF766
:101C800055FD002000F056F9404610210122BDE824
:101C9000F041FEF74BBD0000B0B50024C4F20204D1
:101CA00020464FF480410022FEF740FD20461021DF
:101CB0000022FEF73BFD402000F03CF920461021B9
:101CC0000122FEF733FD20464FF480410022FEF74B
:101CD0002DFD204610210022FEF728FD802000F077
:101CE00029F9204610210122FEF720FD4FF4FC7552
:101CF00020464FF480410122FEF718FD20461021B6
:101D00000022FEF713FD002000F014F920461021F8
:101D10000122FEF70BFD013DEAD1B0BD10B5FEF783
:101D2000A9FB0024C4F2020420464FF480410122A2
:101D3000FEF7FCFC204610210122FEF7F7FCC8202C
:101D4000FEF770FB20464FF400510022FEF7EEFC38
:101D50000A20FEF703FC20464FF400510122FEF753
:101D6000E5FC20464FF480410022FEF7DFFC2046D0
:101D700010210022FEF7DAFC212000F0DBF82046DB
:101D800010210122FEF7D2FC20464FF480410022B0
:101D9000FEF7CCFC204610210022FEF7C7FCC8202D
:101DA00000F0C8F8204610210122FEF7BFFC2046B3
:101DB0004FF480410022FEF7B9FC2046102100229A
:101DC000FEF7B4FC132000F0B5F8204610210122E4
:101DD000FEF7ACFC20464FF480410022FEF7A6FC43
:101DE000204610210022FEF7A1FC202000F0A2F8DE
:101DF000204610210122FEF799FC20464FF4804135
:101E00000022FEF793FC204610210022FEF78EFCF4
:101E1000092000F08FF8204610210122FEF786FCF1
:101E20003220FEF79BFBFFF737FF0A20FEF796FBF9
:101E300020464FF480410022FEF778FC2046102116
:101E40000022FEF773FC082000F074F820461021F1
:101E50000122FEF76BFC0A20FEF780FB20464FF4C0
:101E600080410022FEF762FC204610210022FEF78E
:101E70005DFC0C2000F05EF8204610210122BDE838
:101E80001040FEF753BC00002DE9F0410446002746
:101E9000002818BF013C08202546C4F202079046DE
:101EA0000E46002960F3DF0538464FF480414FF0BD
:101EB000000218BF013EFEF739FC3846102100220F
:101EC000FEF734FC284600F035F838461021012290
:101ED000FEF72CFC38464FF48041002246F0800586
:101EE000FEF724FC384610210022FEF71FFCE8B262
:101EF00000F020F8384610210122FEF717FC98F870
:101F00000000002808BFBDE8F08106EB46014D0047
:101F1000A8F10106E4B200BFE9B2C2B22046FFF761
:101F2000F5FDB0780635002806F10106F4D1BDE8CC
:101F3000F0810000B0B50024C4F20204054620463A
:101F400020210022FEF7F2FB0220FEF76BFAEA09DD
:101F500020468021FEF7EAFB204620210122FEF7E1
:101F6000E5FB0220FEF75EFA204620210022FEF764
:101F7000DDFB0220FEF756FAC5F3801220468021D1
:101F8000FEF7D4FB204620210122FEF7CFFB0220E2
:101F9000FEF748FA204620210022FEF7C7FB022068
:101FA000FEF740FAC5F3401220468021FEF7BEFB43
:101FB000204620210122FEF7B9FB0220FEF732FA6B
:101FC000204620210022FEF7B1FB0220FEF72AFA6C
:101FD000C5F3001220468021FEF7A8FB20462021F1
:101FE0000122FEF7A3FB0220FEF71CFA2046202167
:101FF0000022FEF79BFB0220FEF714FAC5F3C00295
:1020000020468021FEF792FB204620210122FEF788
:102010008DFB0220FEF706FA204620210022FEF763
:1020200085FB0220FEF7FEF9C5F3800220468021E1
:10203000FEF77CFB204620210122FEF777FB0220E1
:10204000FEF7F0F9204620210022FEF76FFB022068
:10205000FEF7E8F9C5F3400220468021FEF766FB53
:10206000204620210122FEF761FB0220FEF7DAF96B
:10207000204620210022FEF759FB0220FEF7D2F96C
:1020800005F0010220468021FEF750FB204620216A
:102090000122FEF74BFB0220BDE8B040FEF7C2B9BB
:1020A0007047000070470000FEF74CBB4EF68850AA
:1020B000CEF20000016841F4700101607047000039
:1020C000806B0021C185C184FEF7D6BE81B090F837
:1020D0003E10222921D183680246B3F5805F09D1E1
:1020E00052F8281F52F8183C002B63D003685B6835
:1020F0000AE000BF52F8281F13B90369002BF5D07E
:1021000003685B6803F07F030B7011680131116095
:10211000C18D01390A04C18502D001B0704700BFEA
:102120000168CA6822F02002CA60CA6822F480727C
:10213000CA604A6922F001024A61202180F83E10FB
:10214000016B01293ED10021016300BF016851E804
:10215000031F026821F0100142E80313DBB101689C
:1021600051E8031F026821F0100142E8031393B104
:10217000016851E8031F026821F0100142E80313CF
:102180004BB1016851E8031F026821F0100142E8D9
:102190000313002BDAD101680A68D20606D50022A3
:1021A00000920A680092496800910099818D01B0FF
:1021B000FEF760BE026852686FF35F2221F8022BBF
:1021C0008162A5E701B0FFF7A9B9000010B5044688
:1021D0000068D4E902C22369016921F44051114326
:1021E0000161626943EA0C01E3691143C268194362
:1021F00049F20C639A431143C1604169A26921F419
:10220000407141F20043114340F48062C4F2010383
:102210009A42416102D1FEF713FC01E0FEF7FCFB9C
:10222000E16963681922B1F5004FA0FB020123D1D7
:102230005A00DB0FFEF718F848F21F51C5F2EB11F8
:10224000A0FB01235A094FF69C73C0F6FF7303F1FC
:10225000805302FB0300322303EBC000A0FB01010B
:102260004FF4F87000EA111000EB0210C1F34211B4
:1022700008442168886010BD9A009B0FFDF7F4FFA9
:1022800048F21F51C5F2EB11A0FB01235A094FF68A
:102290009C73C0F6FF7302FB0300322303EB0010B4
:1022A000A0FB0101F02000EA511000EB0210C1F385
:1022B000431108442168886010BD000040F2D4003A
:1022C000C2F20000FEF7DABDFEE700002DE9F0479C
:1022D0002DED028B82B0A1F10308B8F1040F824604
:1022E00014D20DF107015046042200F0C7F99DF801
:1022F000070000EE100A40F27000C2F20000C08831
:10230000B8EE408A022828D2B1E000BF40F270093E
:10231000C2F20009B9F80600002800F0B88040F2C7
:10232000D406002704240DF10705C2F2000600BF01
:1023300054FA87F25046294600F0A0F93046294663
:1023400001220A23FFF796FA0137B9F80600F9B21D
:102350008842EDD80228C0F08A80B8F1030F1FD858
:10236000DFE808F002324E6A40F2700600200DF1FC
:102370000705C2F200060027421D5046294600F01C
:102380007DF99DF80700F18800EE100A0137B8EEDC
:10239000400AF8B20139814238EE008AECDC66E08E
:1023A00040F2700400200DF10705C2F2000400267F
:1023B000421D5046294600F061F9E1880136F0B22D
:1023C00001398142F4DC52E040F2700600200DF148
:1023D0000705C2F200060027421D5046294600F0BC
:1023E0004DF99DF80700F18800EE100A0137B8EEAC
:1023F000400AF8B20139814238EE408AECDC36E01E
:1024000040F2700600200DF10705C2F20006002719
:10241000421D5046294600F031F99DF80700F18829
:1024200000EE100A0137B8EE400AF8B201398142D5
:1024300028EE008AECDC1AE040F2700600200DF174
:102440000705C2F200060027421D5046294600F04B
:1024500015F99DF80700F18800EE100AB8EE400A61
:1024600088EE008A0137F8B201398142ECDCB8F11C
:10247000030F0CD818EE100A00BA009040F2D400F6
:10248000C2F20000694604221E23FFF7F3F902B0EE
:10249000BDEC028BBDE8F0870023C0E90013C0E962
:1024A0000232036170470000D0E9001200238B5410
:1024B0004168C2684B1CB3FBF2FC01690CFB123291
:1024C000002942601CBF01390161704792B043F698
:1024D000300547F20007C4F20205C4F20007FEF718
:1024E0003FF906AC201D2C21FDF736FF002605968E
:1024F000CDE90366CDE901660096286940F0805079
:102500002861286900F08050009000980096386893
:1025100040F480403860386800F4804000900098B3
:10252000022006900120099010200A9020460C9667
:10253000FEF7D0FA20B1EFF3108072B6FEE700BFCD
:102540000F20CDE9010601A80021CDE9036605961B
:10255000FEF7B2F920B1EFF3108072B6FEE700BFCC
:1025600000240A940194286807F5CC3640F0040052
:1025700028602868072100F0040001900198019468
:102580002868002240F00100286028684FF0070802
:1025900000F00100019001980194286840F00200C9
:1025A0002860286800F00200019001983046FEF78C
:1025B000BDF807F5C83528464EF2BF1100224EF28D
:1025C000BF19FEF7B3F807F5CA3738464021002295
:1025D0004FF0400AFEF7AAF8CDF818800DF1180860
:1025E0004FF0010B30464146CDE907B40994FDF7A1
:1025F000C9FF28464146CDE9069BCDE90844FDF7D1
:10260000C1FF38464146CDE906ABCDE90844FDF7A8
:10261000B9FF40F2D40044F60001C2F20000C4F257
:1026200000010C234FF4E13280E81600C0E90344B6
:10263000C0E90534C461FEF7D3FE28B1EFF3108082
:1026400072B600BFFEE700BFFDF714FFFFF766FBA1
:1026500040F27004C2F2000404F1100004F12401FD
:102660004022FFF719FF40F2D400611CC2F20000C3
:102670000122FEF723FF00BFFEE7000080B5D0F87F
:1026800004C0D0F80CE06244B2FBFEF303FB1E2250
:1026900003699A4202D80068805C087000209A4260
:1026A00088BF012080BD00002DE9F04F03AF83B04B
:1026B00040F27009C2F200090446B9F806006E46FD
:1026C000073020F00700ADEB0005AD46A7F1110182
:1026D00020460422FFF7D2FFB9F8060001280BD1EB
:1026E00017F8110CFF2807D1FFF7D6FAB546A7F166
:1026F0000C04A546BDE8F08FA7F112012046042284
:1027000047F8186C4FF0040AFFF7B8FFA7F1130160
:1027100020460522FFF7B2FFB9F80600A0B1002657
:10272000A7F1110B5AFA86F2204659465FFA86F84D
:10273000FFF7A4FF0136B9F8061017F8110CF2B232
:10274000914205F80800EDD817F8120C17F8131C81
:102750002A46FFF799FB57F8186CB546A7F10C0409
:10276000A546BDE8F08F000002688368D154D0E927
:1027700003128A4202D20132026108E007D14368A3
:1027800003F1010CBCFBF2F303FB12C2426082684E
:102790000132B2FBF1F303FB1121816070470000AD
:1027A000B0B582B00DF1070104220446FFF766FFC1
:1027B0000DF1060120460522FFF760FF00249DF879
:1027C0000700C4F2020404F5006500F00102284687
:1027D0000421FDF7ABFF9DF807000121C0F3400283
:1027E0002846FDF7A3FF9DF807000421C0F38002EF
:1027F0002046FDF79BFF9DF807000121C0F3C002B2
:102800002046FDF793FF9DF807004FF48071C0F359
:1028100000122046FDF78AFF9DF807000221C0F351
:1028200040122846FDF782FF9DF807000821C0F3FB
:1028300080122046FDF77AFF9DF807000221C209A9
:102840002046FDF773FF9DF8060044F24021C0F2D8
:102850000F014843FDF7E6FD284604210022FDF75D
:1028600065FF284601210022FDF760FF2046042174
:102870000022FDF75BFF204601210022FDF756FFF5
:1028800020464FF480710022FDF750FF28460221B8
:102890000022FDF74BFF204608210022FDF746FFEE
:1028A000204602210022FDF741FF02B0B0BDF1EE4B
:1028B000100A4FF6FF71C0F2C03120EA010040F06B
:1028C0004070E1EE100A70470000000000000000B8
:1028D00001020304060708090000000001020304C6
:1028E000000000000000005F000000070007001467
:1028F0007F147F14242A7F2A122313086462364926
:102900005522500005030000001C22410000412216
:102910001C0014083E081408083E08080050300047
:102920000008080808080060600000201008040281
:102930003E5149453E00427F400042615149462197
:1029400041454B311814127F1027454545393C4A03
:102950004949300171090503364949493606494953
:10296000291E0036360000005636000008142241A9
:102970000014141414140041221408020151090611
:10298000324979413E7E1111117E7F494949363ED7
:10299000414141227F4141221C7F494949417F09F0
:1029A0000909013E4149497A7F0808087F00417FB3
:1029B00041002040413F017F081422417F404040B8
:1029C000407F020C027F7F0408107F3E4141413E60
:1029D0007F090909063E4151215E7F0919294646B2
:1029E0004949493101017F01013F4040403F1F20DB
:1029F00040201F3F4038403F6314081463070870AD
:102A000008076151494543007F4141000204081015
:102A1000200041417F000402010204404040404048
:102A2000000102040020545454787F48444438384C
:102A300044444420384444487F3854545418087E51
:102A40000901020C5252523E7F0804047800447D72
:102A500040002040443D007F1028440000417F405A
:102A6000007C041804787C08040478384444443812
:102A70007C14141408081414187C7C0804040848F6
:102A800054545420043F4440203C4040207C1C20AF
:102A900040201C3C4030403C44281028440C5050FE
:102AA000503C4464544C44000836410000007F0010
:102AB00000004136080010080810087846414678A2
:102AC00000000000E82A00080000002010000000BC
:102AD000C4010008F82A00081000002010070000B8
:102AE000E0010008000000000100000010000000EC
:082AF0000024F40000000000C6
:040000050800018965
:00000001FF
